{
  "_format": "hh-sol-artifact-1",
  "contractName": "NFTMarketplace",
  "sourceName": "contracts/NFTMarketplace.sol",
  "abi": [
    {
      "inputs": [
        {
          "internalType": "address",
          "name": "rewardTokenAddress",
          "type": "address"
        }
      ],
      "stateMutability": "nonpayable",
      "type": "constructor"
    },
    {
      "anonymous": false,
      "inputs": [
        {
          "indexed": true,
          "internalType": "address",
          "name": "owner",
          "type": "address"
        },
        {
          "indexed": true,
          "internalType": "address",
          "name": "approved",
          "type": "address"
        },
        {
          "indexed": true,
          "internalType": "uint256",
          "name": "tokenId",
          "type": "uint256"
        }
      ],
      "name": "Approval",
      "type": "event"
    },
    {
      "anonymous": false,
      "inputs": [
        {
          "indexed": true,
          "internalType": "address",
          "name": "owner",
          "type": "address"
        },
        {
          "indexed": true,
          "internalType": "address",
          "name": "operator",
          "type": "address"
        },
        {
          "indexed": false,
          "internalType": "bool",
          "name": "approved",
          "type": "bool"
        }
      ],
      "name": "ApprovalForAll",
      "type": "event"
    },
    {
      "anonymous": false,
      "inputs": [
        {
          "indexed": true,
          "internalType": "uint256",
          "name": "tokenId",
          "type": "uint256"
        },
        {
          "indexed": false,
          "internalType": "address",
          "name": "seller",
          "type": "address"
        },
        {
          "indexed": false,
          "internalType": "address",
          "name": "owner",
          "type": "address"
        },
        {
          "indexed": false,
          "internalType": "uint256",
          "name": "price",
          "type": "uint256"
        },
        {
          "indexed": false,
          "internalType": "bool",
          "name": "sold",
          "type": "bool"
        }
      ],
      "name": "MarketItemCreated",
      "type": "event"
    },
    {
      "anonymous": false,
      "inputs": [
        {
          "indexed": true,
          "internalType": "address",
          "name": "from",
          "type": "address"
        },
        {
          "indexed": true,
          "internalType": "address",
          "name": "to",
          "type": "address"
        },
        {
          "indexed": true,
          "internalType": "uint256",
          "name": "tokenId",
          "type": "uint256"
        }
      ],
      "name": "Transfer",
      "type": "event"
    },
    {
      "anonymous": false,
      "inputs": [
        {
          "indexed": false,
          "internalType": "address",
          "name": "_from",
          "type": "address"
        },
        {
          "indexed": false,
          "internalType": "address",
          "name": "_destAddr",
          "type": "address"
        },
        {
          "indexed": false,
          "internalType": "uint256",
          "name": "_amount",
          "type": "uint256"
        }
      ],
      "name": "TransferSent",
      "type": "event"
    },
    {
      "inputs": [
        {
          "internalType": "address",
          "name": "to",
          "type": "address"
        },
        {
          "internalType": "uint256",
          "name": "tokenId",
          "type": "uint256"
        }
      ],
      "name": "approve",
      "outputs": [],
      "stateMutability": "nonpayable",
      "type": "function"
    },
    {
      "inputs": [
        {
          "internalType": "address",
          "name": "owner",
          "type": "address"
        }
      ],
      "name": "balanceOf",
      "outputs": [
        {
          "internalType": "uint256",
          "name": "",
          "type": "uint256"
        }
      ],
      "stateMutability": "view",
      "type": "function"
    },
    {
      "inputs": [
        {
          "internalType": "uint256",
          "name": "tokenId",
          "type": "uint256"
        }
      ],
      "name": "createMarketSale",
      "outputs": [],
      "stateMutability": "payable",
      "type": "function"
    },
    {
      "inputs": [
        {
          "internalType": "string",
          "name": "tokenURI",
          "type": "string"
        },
        {
          "internalType": "uint256",
          "name": "price",
          "type": "uint256"
        }
      ],
      "name": "createToken",
      "outputs": [],
      "stateMutability": "payable",
      "type": "function"
    },
    {
      "inputs": [
        {
          "internalType": "uint256",
          "name": "tokenId",
          "type": "uint256"
        }
      ],
      "name": "getApproved",
      "outputs": [
        {
          "internalType": "address",
          "name": "",
          "type": "address"
        }
      ],
      "stateMutability": "view",
      "type": "function"
    },
    {
      "inputs": [],
      "name": "getCurrentTokenID",
      "outputs": [
        {
          "internalType": "uint256",
          "name": "",
          "type": "uint256"
        }
      ],
      "stateMutability": "view",
      "type": "function"
    },
    {
      "inputs": [
        {
          "internalType": "address",
          "name": "_address",
          "type": "address"
        }
      ],
      "name": "getERC20Balsnce",
      "outputs": [
        {
          "internalType": "uint256",
          "name": "",
          "type": "uint256"
        }
      ],
      "stateMutability": "view",
      "type": "function"
    },
    {
      "inputs": [],
      "name": "getListingPrice",
      "outputs": [
        {
          "internalType": "uint256",
          "name": "",
          "type": "uint256"
        }
      ],
      "stateMutability": "view",
      "type": "function"
    },
    {
      "inputs": [
        {
          "internalType": "uint256",
          "name": "tokenId",
          "type": "uint256"
        }
      ],
      "name": "getOwner",
      "outputs": [
        {
          "internalType": "address",
          "name": "",
          "type": "address"
        }
      ],
      "stateMutability": "view",
      "type": "function"
    },
    {
      "inputs": [
        {
          "internalType": "uint256",
          "name": "tokenId",
          "type": "uint256"
        }
      ],
      "name": "getPrice",
      "outputs": [
        {
          "internalType": "uint256",
          "name": "",
          "type": "uint256"
        }
      ],
      "stateMutability": "view",
      "type": "function"
    },
    {
      "inputs": [
        {
          "internalType": "address",
          "name": "_address",
          "type": "address"
        }
      ],
      "name": "getRewardTokenBalsnce",
      "outputs": [
        {
          "internalType": "uint256",
          "name": "",
          "type": "uint256"
        }
      ],
      "stateMutability": "view",
      "type": "function"
    },
    {
      "inputs": [
        {
          "internalType": "address",
          "name": "owner",
          "type": "address"
        },
        {
          "internalType": "address",
          "name": "operator",
          "type": "address"
        }
      ],
      "name": "isApprovedForAll",
      "outputs": [
        {
          "internalType": "bool",
          "name": "",
          "type": "bool"
        }
      ],
      "stateMutability": "view",
      "type": "function"
    },
    {
      "inputs": [],
      "name": "name",
      "outputs": [
        {
          "internalType": "string",
          "name": "",
          "type": "string"
        }
      ],
      "stateMutability": "view",
      "type": "function"
    },
    {
      "inputs": [
        {
          "internalType": "uint256",
          "name": "tokenId",
          "type": "uint256"
        }
      ],
      "name": "ownerOf",
      "outputs": [
        {
          "internalType": "address",
          "name": "",
          "type": "address"
        }
      ],
      "stateMutability": "view",
      "type": "function"
    },
    {
      "inputs": [
        {
          "internalType": "uint256",
          "name": "tokenId",
          "type": "uint256"
        },
        {
          "internalType": "uint256",
          "name": "price",
          "type": "uint256"
        }
      ],
      "name": "resellToken",
      "outputs": [],
      "stateMutability": "payable",
      "type": "function"
    },
    {
      "inputs": [],
      "name": "rewardsToken",
      "outputs": [
        {
          "internalType": "contract IERC20",
          "name": "",
          "type": "address"
        }
      ],
      "stateMutability": "view",
      "type": "function"
    },
    {
      "inputs": [
        {
          "internalType": "address",
          "name": "from",
          "type": "address"
        },
        {
          "internalType": "address",
          "name": "to",
          "type": "address"
        },
        {
          "internalType": "uint256",
          "name": "tokenId",
          "type": "uint256"
        }
      ],
      "name": "safeTransferFrom",
      "outputs": [],
      "stateMutability": "nonpayable",
      "type": "function"
    },
    {
      "inputs": [
        {
          "internalType": "address",
          "name": "from",
          "type": "address"
        },
        {
          "internalType": "address",
          "name": "to",
          "type": "address"
        },
        {
          "internalType": "uint256",
          "name": "tokenId",
          "type": "uint256"
        },
        {
          "internalType": "bytes",
          "name": "_data",
          "type": "bytes"
        }
      ],
      "name": "safeTransferFrom",
      "outputs": [],
      "stateMutability": "nonpayable",
      "type": "function"
    },
    {
      "inputs": [
        {
          "internalType": "address",
          "name": "operator",
          "type": "address"
        },
        {
          "internalType": "bool",
          "name": "approved",
          "type": "bool"
        }
      ],
      "name": "setApprovalForAll",
      "outputs": [],
      "stateMutability": "nonpayable",
      "type": "function"
    },
    {
      "inputs": [
        {
          "internalType": "bytes4",
          "name": "interfaceId",
          "type": "bytes4"
        }
      ],
      "name": "supportsInterface",
      "outputs": [
        {
          "internalType": "bool",
          "name": "",
          "type": "bool"
        }
      ],
      "stateMutability": "view",
      "type": "function"
    },
    {
      "inputs": [],
      "name": "symbol",
      "outputs": [
        {
          "internalType": "string",
          "name": "",
          "type": "string"
        }
      ],
      "stateMutability": "view",
      "type": "function"
    },
    {
      "inputs": [
        {
          "internalType": "uint256",
          "name": "tokenId",
          "type": "uint256"
        }
      ],
      "name": "tokenURI",
      "outputs": [
        {
          "internalType": "string",
          "name": "",
          "type": "string"
        }
      ],
      "stateMutability": "view",
      "type": "function"
    },
    {
      "inputs": [
        {
          "internalType": "contract IERC20",
          "name": "token",
          "type": "address"
        },
        {
          "internalType": "address",
          "name": "to",
          "type": "address"
        },
        {
          "internalType": "uint256",
          "name": "amount",
          "type": "uint256"
        }
      ],
      "name": "transferERC20",
      "outputs": [],
      "stateMutability": "nonpayable",
      "type": "function"
    },
    {
      "inputs": [
        {
          "internalType": "address",
          "name": "from",
          "type": "address"
        },
        {
          "internalType": "address",
          "name": "to",
          "type": "address"
        },
        {
          "internalType": "uint256",
          "name": "tokenId",
          "type": "uint256"
        }
      ],
      "name": "transferFrom",
      "outputs": [],
      "stateMutability": "nonpayable",
      "type": "function"
    },
    {
      "inputs": [
        {
          "internalType": "uint256",
          "name": "_listingPrice",
          "type": "uint256"
        }
      ],
      "name": "updateListingPrice",
      "outputs": [],
      "stateMutability": "payable",
      "type": "function"
    }
  ],
  "bytecode": "0x60a06040526658d15e176280006009553480156200001c57600080fd5b506040516200252f3803806200252f8339810160408190526200003f9162000178565b604080518082018252600d81526c56696468756220546f6b656e7360981b60208083019182528351808501909452600384526215925160ea1b9084015281519192916200008f91600091620000d2565b508051620000a5906001906020840190620000d2565b5050600a8054336001600160a01b03199091161790555060601b6001600160601b031916608052620001e5565b828054620000e090620001a8565b90600052602060002090601f0160209004810192826200010457600085556200014f565b82601f106200011f57805160ff19168380011785556200014f565b828001600101855582156200014f579182015b828111156200014f57825182559160200191906001019062000132565b506200015d92915062000161565b5090565b5b808211156200015d576000815560010162000162565b6000602082840312156200018a578081fd5b81516001600160a01b0381168114620001a1578182fd5b9392505050565b600181811c90821680620001bd57607f821691505b60208210811415620001df57634e487b7160e01b600052602260045260246000fd5b50919050565b60805160601c61231d620002126000396000818161046f01528181610a1d0152610cf5015261231d6000f3fe6080604052600436106101965760003560e01c8063a22cb465116100e1578063c41a360a1161008a578063d1af0c7d11610064578063d1af0c7d1461045d578063e219fc7514610491578063e7572230146104a4578063e985e9c5146104d457600080fd5b8063c41a360a146103ef578063c4a6d0d214610428578063c87b56dd1461043d57600080fd5b8063b88d4fde116100bb578063b88d4fde14610386578063be9af536146103a6578063c02cf003146103b957600080fd5b8063a22cb46514610333578063ae677aa314610353578063b57ce2671461036657600080fd5b806342842e0e1161014357806372b3b6201161011d57806372b3b620146102eb57806395d89b41146102fe5780639db5dbe41461031357600080fd5b806342842e0e1461028b5780636352211e146102ab57806370a08231146102cb57600080fd5b8063095ea7b311610174578063095ea7b31461022a57806312e855851461024c57806323b872dd1461026b57600080fd5b806301ffc9a71461019b57806306fdde03146101d0578063081812fc146101f2575b600080fd5b3480156101a757600080fd5b506101bb6101b6366004611ff3565b61051d565b60405190151581526020015b60405180910390f35b3480156101dc57600080fd5b506101e56105ba565b6040516101c7919061217d565b3480156101fe57600080fd5b5061021261020d366004612095565b61064c565b6040516001600160a01b0390911681526020016101c7565b34801561023657600080fd5b5061024a610245366004611fac565b6106e6565b005b34801561025857600080fd5b506009545b6040519081526020016101c7565b34801561027757600080fd5b5061024a610286366004611ec2565b610818565b34801561029757600080fd5b5061024a6102a6366004611ec2565b61089f565b3480156102b757600080fd5b506102126102c6366004612095565b6108ba565b3480156102d757600080fd5b5061025d6102e6366004611e6e565b610945565b61024a6102f936600461203f565b6109df565b34801561030a57600080fd5b506101e5610a77565b34801561031f57600080fd5b5061024a61032e36600461202b565b610a86565b34801561033f57600080fd5b5061024a61034e366004611f7f565b610c3d565b61024a610361366004612095565b610c4c565b34801561037257600080fd5b5061025d610381366004611e6e565b610cd1565b34801561039257600080fd5b5061024a6103a1366004611f02565b610d76565b61024a6103b4366004612095565b610e04565b3480156103c557600080fd5b5061025d6103d4366004611e6e565b6001600160a01b03166000908152600c602052604090205490565b3480156103fb57600080fd5b5061021261040a366004612095565b6000908152600b60205260409020600201546001600160a01b031690565b34801561043457600080fd5b5061025d610f2f565b34801561044957600080fd5b506101e5610458366004612095565b610f3f565b34801561046957600080fd5b506102127f000000000000000000000000000000000000000000000000000000000000000081565b61024a61049f3660046120c5565b6110d2565b3480156104b057600080fd5b5061025d6104bf366004612095565b6000908152600b602052604090206003015490565b3480156104e057600080fd5b506101bb6104ef366004611e8a565b6001600160a01b03918216600090815260056020908152604080832093909416825291909152205460ff1690565b60006001600160e01b031982167f80ac58cd00000000000000000000000000000000000000000000000000000000148061058057506001600160e01b031982167f5b5e139f00000000000000000000000000000000000000000000000000000000145b806105b457507f01ffc9a7000000000000000000000000000000000000000000000000000000006001600160e01b03198316145b92915050565b6060600080546105c9906121ff565b80601f01602080910402602001604051908101604052809291908181526020018280546105f5906121ff565b80156106425780601f1061061757610100808354040283529160200191610642565b820191906000526020600020905b81548152906001019060200180831161062557829003601f168201915b5050505050905090565b6000818152600260205260408120546001600160a01b03166106ca5760405162461bcd60e51b815260206004820152602c60248201527f4552433732313a20617070726f76656420717565727920666f72206e6f6e657860448201526b34b9ba32b73a103a37b5b2b760a11b60648201526084015b60405180910390fd5b506000908152600460205260409020546001600160a01b031690565b60006106f1826108ba565b9050806001600160a01b0316836001600160a01b0316141561077b5760405162461bcd60e51b815260206004820152602160248201527f4552433732313a20617070726f76616c20746f2063757272656e74206f776e6560448201527f720000000000000000000000000000000000000000000000000000000000000060648201526084016106c1565b336001600160a01b0382161480610797575061079781336104ef565b6108095760405162461bcd60e51b815260206004820152603860248201527f4552433732313a20617070726f76652063616c6c6572206973206e6f74206f7760448201527f6e6572206e6f7220617070726f76656420666f7220616c6c000000000000000060648201526084016106c1565b61081383836111bc565b505050565b610822338261122a565b6108945760405162461bcd60e51b815260206004820152603160248201527f4552433732313a207472616e736665722063616c6c6572206973206e6f74206f60448201527f776e6572206e6f7220617070726f76656400000000000000000000000000000060648201526084016106c1565b61081383838361131d565b61081383838360405180602001604052806000815250610d76565b6000818152600260205260408120546001600160a01b0316806105b45760405162461bcd60e51b815260206004820152602960248201527f4552433732313a206f776e657220717565727920666f72206e6f6e657869737460448201527f656e7420746f6b656e000000000000000000000000000000000000000000000060648201526084016106c1565b60006001600160a01b0382166109c35760405162461bcd60e51b815260206004820152602a60248201527f4552433732313a2062616c616e636520717565727920666f7220746865207a6560448201527f726f20616464726573730000000000000000000000000000000000000000000060648201526084016106c1565b506001600160a01b031660009081526003602052604090205490565b6109ed600780546001019055565b60006109f860075490565b9050610a0433826114ea565b610a0e818461162c565b610a1881836116d5565b610a457f000000000000000000000000000000000000000000000000000000000000000033600954610a86565b600954336000908152600c6020526040902054610a629190612190565b336000908152600c6020526040902055505050565b6060600180546105c9906121ff565b6040516370a0823160e01b81523060048201526000906001600160a01b038516906370a082319060240160206040518083038186803b158015610ac857600080fd5b505afa158015610adc573d6000803e3d6000fd5b505050506040513d601f19601f82011682018060405250810190610b0091906120ad565b905080821115610b525760405162461bcd60e51b815260206004820152600e60248201527f62616c616e6365206973206c6f7700000000000000000000000000000000000060448201526064016106c1565b6040517fa9059cbb0000000000000000000000000000000000000000000000000000000081526001600160a01b0384811660048301526024820184905285169063a9059cbb90604401602060405180830381600087803b158015610bb557600080fd5b505af1158015610bc9573d6000803e3d6000fd5b505050506040513d601f19601f82011682018060405250810190610bed9190611fd7565b50604080513381526001600160a01b03851660208201529081018390527ffda3a3e0e1479b43cb1c701f7576187f4c4ad80768d627387e00184302f7d88e9060600160405180910390a150505050565b610c4833838361180a565b5050565b600a546001600160a01b03163314610ccc5760405162461bcd60e51b815260206004820152603060248201527f4f6e6c79206d61726b6574706c616365206f776e65722063616e20757064617460448201527f65206c697374696e672070726963652e0000000000000000000000000000000060648201526084016106c1565b600955565b6040516370a0823160e01b81526001600160a01b03828116600483015260009182917f000000000000000000000000000000000000000000000000000000000000000016906370a082319060240160206040518083038186803b158015610d3757600080fd5b505afa158015610d4b573d6000803e3d6000fd5b505050506040513d601f19601f82011682018060405250810190610d6f91906120ad565b9392505050565b610d80338361122a565b610df25760405162461bcd60e51b815260206004820152603160248201527f4552433732313a207472616e736665722063616c6c6572206973206e6f74206f60448201527f776e6572206e6f7220617070726f76656400000000000000000000000000000060648201526084016106c1565b610dfe848484846118d9565b50505050565b6000818152600b6020526040902060030154348114610e8d576040805162461bcd60e51b81526020600482015260248101919091527f506c65617365207375626d6974207468652061736b696e67207072696365206960448201527f6e206f7264657220746f20636f6d706c6574652074686520707572636861736560648201526084016106c1565b6000828152600b602052604090206002810180546001600160a01b0319908116331790915560048201805460ff1916600190811790915590910180549091169055610edc600880546001019055565b610ee730338461131d565b6000828152600b60205260408082206001015490516001600160a01b03909116913480156108fc02929091818181858888f19350505050158015610813573d6000803e3d6000fd5b6000610f3a60075490565b905090565b6000818152600260205260409020546060906001600160a01b0316610fcc5760405162461bcd60e51b815260206004820152603160248201527f45524337323155524953746f726167653a2055524920717565727920666f722060448201527f6e6f6e6578697374656e7420746f6b656e00000000000000000000000000000060648201526084016106c1565b60008281526006602052604081208054610fe5906121ff565b80601f0160208091040260200160405190810160405280929190818152602001828054611011906121ff565b801561105e5780601f106110335761010080835404028352916020019161105e565b820191906000526020600020905b81548152906001019060200180831161104157829003601f168201915b50505050509050600061107c60408051602081019091526000815290565b905080516000141561108f575092915050565b8151156110c15780826040516020016110a9929190612112565b60405160208183030381529060405292505050919050565b6110ca84611962565b949350505050565b6000828152600b60205260409020600201546001600160a01b031633146111615760405162461bcd60e51b815260206004820152602a60248201527f4f6e6c79206974656d206f776e65722063616e20706572666f726d207468697360448201527f206f7065726174696f6e0000000000000000000000000000000000000000000060648201526084016106c1565b6000828152600b6020526040902060048101805460ff19169055600381018290556001810180546001600160a01b0319908116331790915560029091018054909116301790556111b16008611a57565b610c4833308461131d565b600081815260046020526040902080546001600160a01b0319166001600160a01b03841690811790915581906111f1826108ba565b6001600160a01b03167f8c5be1e5ebec7d5bd14f71427d1e84f3dd0314c0f7b2291e5b200ac8c7c3b92560405160405180910390a45050565b6000818152600260205260408120546001600160a01b03166112a35760405162461bcd60e51b815260206004820152602c60248201527f4552433732313a206f70657261746f7220717565727920666f72206e6f6e657860448201526b34b9ba32b73a103a37b5b2b760a11b60648201526084016106c1565b60006112ae836108ba565b9050806001600160a01b0316846001600160a01b031614806112e95750836001600160a01b03166112de8461064c565b6001600160a01b0316145b806110ca57506001600160a01b0380821660009081526005602090815260408083209388168352929052205460ff166110ca565b826001600160a01b0316611330826108ba565b6001600160a01b0316146113ac5760405162461bcd60e51b815260206004820152602560248201527f4552433732313a207472616e736665722066726f6d20696e636f72726563742060448201527f6f776e657200000000000000000000000000000000000000000000000000000060648201526084016106c1565b6001600160a01b0382166114275760405162461bcd60e51b8152602060048201526024808201527f4552433732313a207472616e7366657220746f20746865207a65726f2061646460448201527f726573730000000000000000000000000000000000000000000000000000000060648201526084016106c1565b6114326000826111bc565b6001600160a01b038316600090815260036020526040812080546001929061145b9084906121bc565b90915550506001600160a01b0382166000908152600360205260408120805460019290611489908490612190565b909155505060008181526002602052604080822080546001600160a01b0319166001600160a01b0386811691821790925591518493918716917fddf252ad1be2c89b69c2b068fc378daa952ba7f163c4a11628f55a4df523b3ef91a4505050565b6001600160a01b0382166115405760405162461bcd60e51b815260206004820181905260248201527f4552433732313a206d696e7420746f20746865207a65726f206164647265737360448201526064016106c1565b6000818152600260205260409020546001600160a01b0316156115a55760405162461bcd60e51b815260206004820152601c60248201527f4552433732313a20746f6b656e20616c7265616479206d696e7465640000000060448201526064016106c1565b6001600160a01b03821660009081526003602052604081208054600192906115ce908490612190565b909155505060008181526002602052604080822080546001600160a01b0319166001600160a01b03861690811790915590518392907fddf252ad1be2c89b69c2b068fc378daa952ba7f163c4a11628f55a4df523b3ef908290a45050565b6000828152600260205260409020546001600160a01b03166116b65760405162461bcd60e51b815260206004820152602e60248201527f45524337323155524953746f726167653a2055524920736574206f66206e6f6e60448201527f6578697374656e7420746f6b656e00000000000000000000000000000000000060648201526084016106c1565b6000828152600660209081526040909120825161081392840190611d5f565b600081116117255760405162461bcd60e51b815260206004820152601c60248201527f5072696365206d757374206265206174206c656173742031207765690000000060448201526064016106c1565b6040805160a08101825283815233602080830182815230848601818152606086018881526000608088018181528b8252600b909652979097209551865591516001860180546001600160a01b03199081166001600160a01b0393841617909155925160028701805490941691161790915593516003840155516004909201805460ff1916921515929092179091556117bd918461131d565b604080513381523060208201529081018290526000606082015282907fb640004f1d14576d0c209e240cad0410e0d8c0c33a09375861fbadae2588a98d9060800160405180910390a25050565b816001600160a01b0316836001600160a01b0316141561186c5760405162461bcd60e51b815260206004820152601960248201527f4552433732313a20617070726f766520746f2063616c6c65720000000000000060448201526064016106c1565b6001600160a01b03838116600081815260056020908152604080832094871680845294825291829020805460ff191686151590811790915591519182527f17307eab39ab6107e8899845ad3d59bd9653f200f220920489ca2b5937696c31910160405180910390a3505050565b6118e484848461131d565b6118f084848484611aae565b610dfe5760405162461bcd60e51b815260206004820152603260248201527f4552433732313a207472616e7366657220746f206e6f6e20455243373231526560448201527f63656976657220696d706c656d656e746572000000000000000000000000000060648201526084016106c1565b6000818152600260205260409020546060906001600160a01b03166119ef5760405162461bcd60e51b815260206004820152602f60248201527f4552433732314d657461646174613a2055524920717565727920666f72206e6f60448201527f6e6578697374656e7420746f6b656e000000000000000000000000000000000060648201526084016106c1565b6000611a0660408051602081019091526000815290565b90506000815111611a265760405180602001604052806000815250610d6f565b80611a3084611c11565b604051602001611a41929190612112565b6040516020818303038152906040529392505050565b805480611aa65760405162461bcd60e51b815260206004820152601b60248201527f436f756e7465723a2064656372656d656e74206f766572666c6f77000000000060448201526064016106c1565b600019019055565b60006001600160a01b0384163b15611c0657604051630a85bd0160e11b81526001600160a01b0385169063150b7a0290611af2903390899088908890600401612141565b602060405180830381600087803b158015611b0c57600080fd5b505af1925050508015611b3c575060408051601f3d908101601f19168201909252611b399181019061200f565b60015b611bec573d808015611b6a576040519150601f19603f3d011682016040523d82523d6000602084013e611b6f565b606091505b508051611be45760405162461bcd60e51b815260206004820152603260248201527f4552433732313a207472616e7366657220746f206e6f6e20455243373231526560448201527f63656976657220696d706c656d656e746572000000000000000000000000000060648201526084016106c1565b805181602001fd5b6001600160e01b031916630a85bd0160e11b1490506110ca565b506001949350505050565b606081611c5157505060408051808201909152600181527f3000000000000000000000000000000000000000000000000000000000000000602082015290565b8160005b8115611c7b5780611c658161223a565b9150611c749050600a836121a8565b9150611c55565b60008167ffffffffffffffff811115611ca457634e487b7160e01b600052604160045260246000fd5b6040519080825280601f01601f191660200182016040528015611cce576020820181803683370190505b5090505b84156110ca57611ce36001836121bc565b9150611cf0600a86612255565b611cfb906030612190565b60f81b818381518110611d1e57634e487b7160e01b600052603260045260246000fd5b60200101907effffffffffffffffffffffffffffffffffffffffffffffffffffffffffffff1916908160001a905350611d58600a866121a8565b9450611cd2565b828054611d6b906121ff565b90600052602060002090601f016020900481019282611d8d5760008555611dd3565b82601f10611da657805160ff1916838001178555611dd3565b82800160010185558215611dd3579182015b82811115611dd3578251825591602001919060010190611db8565b50611ddf929150611de3565b5090565b5b80821115611ddf5760008155600101611de4565b600067ffffffffffffffff80841115611e1357611e13612295565b604051601f8501601f19908116603f01168101908282118183101715611e3b57611e3b612295565b81604052809350858152868686011115611e5457600080fd5b858560208301376000602087830101525050509392505050565b600060208284031215611e7f578081fd5b8135610d6f816122ab565b60008060408385031215611e9c578081fd5b8235611ea7816122ab565b91506020830135611eb7816122ab565b809150509250929050565b600080600060608486031215611ed6578081fd5b8335611ee1816122ab565b92506020840135611ef1816122ab565b929592945050506040919091013590565b60008060008060808587031215611f17578081fd5b8435611f22816122ab565b93506020850135611f32816122ab565b925060408501359150606085013567ffffffffffffffff811115611f54578182fd5b8501601f81018713611f64578182fd5b611f7387823560208401611df8565b91505092959194509250565b60008060408385031215611f91578182fd5b8235611f9c816122ab565b91506020830135611eb7816122c3565b60008060408385031215611fbe578182fd5b8235611fc9816122ab565b946020939093013593505050565b600060208284031215611fe8578081fd5b8151610d6f816122c3565b600060208284031215612004578081fd5b8135610d6f816122d1565b600060208284031215612020578081fd5b8151610d6f816122d1565b600080600060608486031215611ed6578283fd5b60008060408385031215612051578182fd5b823567ffffffffffffffff811115612067578283fd5b8301601f81018513612077578283fd5b61208685823560208401611df8565b95602094909401359450505050565b6000602082840312156120a6578081fd5b5035919050565b6000602082840312156120be578081fd5b5051919050565b600080604083850312156120d7578182fd5b50508035926020909101359150565b600081518084526120fe8160208601602086016121d3565b601f01601f19169290920160200192915050565b600083516121248184602088016121d3565b8351908301906121388183602088016121d3565b01949350505050565b60006001600160a01b0380871683528086166020840152508360408301526080606083015261217360808301846120e6565b9695505050505050565b602081526000610d6f60208301846120e6565b600082198211156121a3576121a3612269565b500190565b6000826121b7576121b761227f565b500490565b6000828210156121ce576121ce612269565b500390565b60005b838110156121ee5781810151838201526020016121d6565b83811115610dfe5750506000910152565b600181811c9082168061221357607f821691505b6020821081141561223457634e487b7160e01b600052602260045260246000fd5b50919050565b600060001982141561224e5761224e612269565b5060010190565b6000826122645761226461227f565b500690565b634e487b7160e01b600052601160045260246000fd5b634e487b7160e01b600052601260045260246000fd5b634e487b7160e01b600052604160045260246000fd5b6001600160a01b03811681146122c057600080fd5b50565b80151581146122c057600080fd5b6001600160e01b0319811681146122c057600080fdfea2646970667358221220996a4e620a2c445fe814e41db156058c27c850e7a1e8d5f12c82aa8b39045ed264736f6c63430008040033",
  "linkReferences": {},
  "deployedLinkReferences": {}
}